:020000040800F2
:1000000010100020C14600085D4400085F4400084D
:1000100061440008634400086544000800000000D3
:10002000000000000000000000000000674400081D
:1000300069440008000000006B4400086D4400089B
:10004000194700081D4700082147000825470008F8
:10005000294700082D4700083147000835470008A8
:10006000394700083D470008414700084547000858
:10007000494700084D470008514700085547000808
:10008000594700085D4700086147000865470008B8
:10009000694700086D470008714700087547000868
:1000A000794700087D470008814700088547000818
:1000B00089470008754400087F4400088D47000800
:1000C0009147000895470008994700089D47000898
:1000D000A1470008A9440008A5470008A94700084F
:1000E000AD470008B1470008B5470008B947000808
:1000F000BD470008C1470008C5470008C9470008B8
:10010000CD470008D1470008D5470008D947000867
:10011000DD470008E1470008E5470008E947000817
:10012000ED470008F1470008F5470008F9470008C7
:10013000FD47000801480008054800080948000874
:100140000D48000811480008154800081948000823
:100150001D480008214800082548000829480008D3
:100160002D48000831480008354800083948000883
:100170003D48000841480008454800084948000833
:100180004D480008514800085548000859480008E3
:100190005D4800080000000061480008654800084C
:1001A000694800086D480008714800087548000853
:1001B000794800087D480008814800088548000803
:1001C000894800088D4800089148000895480008B3
:1001D000994800089D48000810B50400002C01D182
:1001E000012037E0A0690028FFD1D4F8840000285E
:1001F00005D1002084F88000200000F0C5FE2420F6
:10020000C4F8840020680068400840002168086045
:10021000200000F020F8012801D101201AE0A06A96
:10022000002802D0200000F0F4F92068406830F483
:100230009040216848602068806830F02A0021687A
:1002400088602068006850F0010021680860200084
:1002500000F04CFA10BD2DE9F84F05000026DFF83C
:10026000541728688842FFD0AA6828690243686941
:100270000243E869024328680368DFF83C0703404B
:100280001343286803602868436833F44053E868E0
:10029000034328684360D5F818902868884202D044
:1002A000286A50EA090928688268DFF810070240C6
:1002B00059EA0202286882602868C26A120912019B
:1002C000686A02432868C2622868DFF8F426904210
:1002D00016D1DFF8F006006810F00300002805D002
:1002E000022805D006D3032806D007E001279DE0A9
:1002F00002279BE0042799E0082797E0102795E064
:100300002868DFF8C426904217D1DFF8B8060068E5
:1003100010F00C00002806D0042808D0082804D0CB
:100320000C2806D007E0002780E002277EE00427A3
:100330007CE008277AE0102778E02868DFF88C2630
:10034000904217D1DFF87C06006810F030000028DA
:1003500006D0102808D0202804D0302806D007E086
:10036000002763E0022761E004275FE008275DE0E3
:1003700010275BE02868DFF85826904217D1DFF895
:100380004406006810F0C000002806D0402808D0BD
:10039000802804D0C02806D007E0002746E00227C6
:1003A00044E0042742E0082740E010273EE02868A8
:1003B000DFF8202690421AD1DFF80806006810F412
:1003C0004070002809D0B0F5807F0AD0B0F5007FDA
:1003D00005D0B0F5407F06D007E0002726E00227D1
:1003E00024E0042722E0082720E010271EE02868E8
:1003F00088421AD1DFF8CC05006810F4406000286C
:1004000009D0B0F5806F0AD0B0F5006F05D0B0F517
:10041000406F06D007E0002708E0022706E0042727
:1004200004E0082702E0102700E01027286888422F
:1004300053D13800C0B2002806D0022808D00428C2
:1004400009D008280BD00DE001F09DF904000CE064
:10045000DFF8844509E001F055F9040005E04FF4A8
:10046000004402E0002401200600002C00F0C280BD
:10047000DFF86815686A31F81000B4FBF0F08246C6
:100480006A6803204243924503D3686800035045DD
:1004900002D201200600ADE0686A31F81000B4FB1A
:1004A000F0F200231B0243EA12631202686840085C
:1004B0000021101859416A68002301F0C7F98046ED
:1004C000B8F5407F06D3B8F5801F03D22868C0F87E
:1004D0000C808FE0012006008CE0E869B0F5004F49
:1004E00049D13800C0B2002808D001280AD002281B
:1004F0000CD004280DD008280FD011E001F043F9EA
:10050000040010E001F04CF904000CE0DFF8C844EE
:1005100009E001F0F7F8040005E04FF4004402E0C0
:10052000002401200600002C64D0DFF8B004696AC2
:1005300030F81100B4FBF0F06968490811EB400194
:100540006868B1FBF0F08046B8F1100F10D3B8F531
:10055000803F0DD24FF6F07111EA08014046C0F31A
:10056000420001438B46584680B22968C86041E08A
:10057000012006003EE03800C0B2002808D0012863
:100580000AD002280CD004280DD008280FD011E082
:1005900001F0F9F8040010E001F002F904000CE0A9
:1005A000DFF8344409E001F0ADF8040005E04FF451
:1005B000004402E0002401200600002C1AD0DFF8DD
:1005C0001C04696A30F81100B4FBF0F0696810EBA4
:1005D00051006968B0FBF1F08046B8F1100F07D305
:1005E000B8F5803F04D2404680B22968C86001E077
:1005F000012006000120A5F86A000120A5F8680086
:1006000000202867002068673000C0B2BDE8F28F84
:10061000000090F82810C90707D501684A6832F42D
:100620000032C16A0A4301684A6090F828108907BD
:1006300007D501684A6832F48032016B0A430168C9
:100640004A6090F82810490707D501684A6832F4D3
:100650008022416B0A4301684A6090F8281009071C
:1006600007D501684A6832F40042816B0A43016889
:100670004A6090F82810C90607D501688A6832F4E4
:100680008052C16B0A4301688A6090F8281089067D
:1006900007D501688A6832F40052016C0A43016888
:1006A0008A6090F82810490613D501684A6832F428
:1006B0008012416C0A4301684A60416CB1F5801FA9
:1006C00007D101684A6832F4C002816C0A430168AC
:1006D0004A6090F82810090607D501684A6832F484
:1006E0000022C16C0A4301684A60704738B50400B3
:1006F0000020C4F88C0001F0C1F9050020680068F2
:1007000000070DD57FF07E4000902B0000225FF4A3
:100710000011200000F023F8002801D003201DE084
:100720002068006840070DD57FF07E4000902B00C8
:1007300000225FF48001200000F011F8002801D0B1
:1007400003200BE02020C4F884002020C4F8880097
:100750000020E066002084F88000002032BD2DE9F2
:10076000F04105000E0017009846069C2868C069F5
:100770003040B04201D1012000E000203900C9B270
:10078000884261D114F1010FF0D001F077F9B0EB9C
:100790000800844201D3002C23D1286850E8000FC0
:1007A00030F4D07001002A6842E800100028F4D12B
:1007B0002868083050E8000F400840000100286811
:1007C00010F1080242E800100028F1D12020C5F8FD
:1007D00084002020C5F88800002085F880000320D0
:1007E00033E0286800684007C0D52868C069000564
:1007F000BCD54FF4006029680862286850E8000FF3
:1008000030F4D07001002A6842E800100028F4D1CA
:100810002868083050E8000F4008400001002868B0
:1008200010F1080242E800100028F1D12020C5F89C
:1008300084002020C5F888002020C5F88C00002006
:1008400085F88000032000E00020BDE8F08130B48E
:1008500003009965A3F85C20A3F85E2000201867C8
:100860009868B0F5805F0BD11869002804D140F278
:10087000FF10A3F8600023E0FF20A3F860001FE052
:10088000986800280AD11869002803D1FF20A3F82E
:10089000600015E07F20A3F8600011E09868B0F1D7
:1008A000805F0AD11869002803D17F20A3F8600077
:1008B00006E03F20A3F8600002E00020A3F86000FB
:1008C0000020C3F88C002220C3F888001868083084
:1008D00050E8000F50F001000400186810F10805FE
:1008E00045E800400028F1D1586EB0F1005F33D1E7
:1008F0001000B3F8684080B2A0422DD39868B0F5DC
:10090000805F06D11869002803D10FF21D401867D7
:1009100002E00FF255201867002083F88000186964
:1009200000280AD0186850E8000F50F480700400C6
:100930001D6845E800400028F4D11868083050E8E8
:10094000000F50F080500400186810F1080545E8C9
:1009500000400028F1D12AE09868B0F5805F06D108
:100960001869002803D10FF23D10186702E00FF25A
:1009700071001867002083F88000186900280BD0E8
:10098000186850E8000F50F4907004001D6845E8A6
:1009900000400028F4D10AE0186850E8000F50F039
:1009A000200004001D6845E800400028F4D1002024
:1009B00030BC704700800040F369FFCFFFF4FF11A7
:1009C00000380140881002400044004000480040C8
:1009D000004C0040005000400024F4005446000841
:1009E00070B50500B5F86060D5F88800222851D1AF
:1009F0002868406A040016EA0400A96D0870A86D12
:100A0000401CA865B5F85E00401EA5F85E00B5F86C
:100A10005E00002844D1286850E8000F30F4907040
:100A200001002A6842E800100028F4D12868083044
:100A300050E8000F400840000100286810F108024B
:100A400042E800100028F1D12020C5F888000020DD
:100A50002867E86E012819D10020E866286850E868
:100A6000000F30F0100001002A6842E80010002852
:100A7000F4D12868C069C00602D510202968086230
:100A8000B5F85C10280000F0FFFF09E0280000F036
:100A9000FCFF05E02868806950F00800296888613B
:100AA00070BD0000F8B50500B5F86070D5F8880095
:100AB000222852D12868406A0400A86D060017EA6F
:100AC00004003080A86D801CA865B5F85E00401E4B
:100AD000A5F85E00B5F85E00002844D1286850E80B
:100AE000000F30F4907001002A6842E800100028DE
:100AF000F4D12868083050E8000F40084000010099
:100B0000286810F1080242E800100028F1D12020E6
:100B1000C5F8880000202867E86E012819D1002058
:100B2000E866286850E8000F30F0100001002A68DD
:100B300042E800100028F4D12868C069C00602D538
:100B4000102029680862B5F85C10280000F09CFFAE
:100B500009E0280000F099FF05E02868806950F05E
:100B6000080029688861F1BD2DE9F84F0700B7F842
:100B700060803868D0F81C903868D0F800A03868D9
:100B8000D0F808B0D7F88800222840F0C480B7F821
:100B900068000500280080B2002800F093805FEA1A
:100BA000896040F18F803868406A040018EA0400C8
:100BB000B96D0870B86D401CB865B7F85E00401E8E
:100BC000A7F85E003868C069814619F0070F36D073
:100BD0004846C0070BD55FEACA5008D501203968DE
:100BE0000862D7F88C0050F00100C7F88C005FEA6B
:100BF00089700BD55846C00708D5022039680862AD
:100C0000D7F88C0050F00400C7F88C005FEA4970F8
:100C10000BD55846C00708D5042039680862D7F8B4
:100C20008C0050F00200C7F88C00D7F88C00002828
:100C300005D0380000F02AFF0020C7F88C00B7F874
:100C40005E000028A6D1386850E8000F30F48070AC
:100C500001003A6842E800100028F4D138680830F2
:100C600050E8002FA14802401100386810F1080236
:100C700042E800100028F1D12020C7F888000020A9
:100C80003867F86E012819D10020F866386850E8F6
:100C9000000F30F0100001003A6842E80010002810
:100CA000F4D13868C069C00602D5102039680862DE
:100CB000B7F85C10380000F0E7FE6BE7380000F092
:100CC000E4FE67E7B7F85E000600300080B2002857
:100CD00027D03000B7F8681080B2884221D2386837
:100CE000083050E8000F30F080500100386810F1F3
:100CF000080242E800100028F1D17D4838673868C2
:100D000050E8000F50F0200001003A6842E800105F
:100D10000028F4D105E03868806950F0080039688F
:100D20008861BDE8F18F00002DE9F84F0600B6F8A4
:100D300060803068D0F81C903068D0F800A030682F
:100D4000D0F808B0D6F88800222840F0C680B6F85F
:100D50006800ADF80000BDF80000002800F09480A5
:100D60005FEA896040F190803068406A0400B06DAD
:100D7000070018EA04003880B06D801CB065B6F832
:100D80005E00401EA6F85E003068C069814619F01A
:100D9000070F36D04846C0070BD55FEACA5008D5C2
:100DA000012031680862D6F88C0050F00100C6F8C6
:100DB0008C005FEA89700BD55846C00708D5022021
:100DC00031680862D6F88C0050F00400C6F88C0038
:100DD0005FEA49700BD55846C00708D50420316832
:100DE0000862D6F88C0050F00200C6F88C00D6F8E5
:100DF0008C00002805D0300000F048FE0020C6F826
:100E00008C00B6F85E000028A5D1306850E8000FCD
:100E100030F480700100326842E800100028F4D1FC
:100E20003068083050E8002F304802401100306828
:100E300010F1080242E800100028F1D12020C6F885
:100E4000880000203067F06E012819D10020F0667C
:100E5000306850E8000F30F010000100326842E8BE
:100E600000100028F4D13068C069C00602D51020F7
:100E700031680862B6F85C10300000F005FE6AE7E1
:100E8000300000F002FE66E7B6F85E0005002800BC
:100E900080B2002827D02800B6F8681080B28842B7
:100EA00021D23068083050E8000F30F08050010047
:100EB000306810F1080242E800100028F1D10D4816
:100EC0003067306850E8000F50F0200001003268B1
:100ED00042E800100028F4D105E03068806950F045
:100EE000080031688861BDE8F18F0000FEFFFFEF68
:100EF000E1090008A50A000880B54948016851F0D9
:100F000001010160006810F0010000900098454860
:100F1000016851F080510160006810F0805000902D
:100F2000009800F06AFE01BD1CB5040020683E492F
:100F3000884212D13B48016851F00201016000680B
:100F400010F0020000900098002200211D2000F007
:100F5000E0FE1D2000F0EFFE15E0206833498842D6
:100F600011D13048016851F004010160006810F0AF
:100F7000040000900098002200211E2000F0C9FE0D
:100F80001E2000F0D8FE13BD30B59BB00400142124
:100F9000002201AD280000F0EBFE5421002206AD36
:100FA000280000F0E5FE20682149884236D1012062
:100FB00006900020079006A800F00EFF002801D040
:100FC00001F02AFA1648016851F480410160006876
:100FD00010F48040009000981648016851F001011B
:100FE0000160006810F00100009000984FF4C060AC
:100FF000019002200290002003900020049007201E
:10100000059001A95FF0904001F008FA002200214C
:10101000252000F07EFE252000F08DFE1BB030BDA7
:1010200060100240581002400004004000080040D8
:10103000003801404C1002402DE9FC470400002C10
:1010400001D1012065E22078C00760D5DFF8B8073C
:10105000006810F00C000600DFF8BC07006810F014
:10106000030007000C2E01D1032F01D0082E09D157
:10107000DFF88C070068800349D56068002846D1F6
:10108000012046E26068B0F5803F06D1DFF87007C6
:10109000016851F48031016018E06068B0F5A02F5C
:1010A0000AD1DFF85C07016851F480210160016812
:1010B00051F48031016009E0DFF84407016831F440
:1010C00080310160016831F480210160606800288E
:1010D0000ED000F0D3FC0500DFF824070068800381
:1010E00015D400F0CBFC401B6528F5D3032010E29B
:1010F00000F0C4FC0500DFF808070068800306D58F
:1011000000F0BCFC401B6528F5D3032001E22078E9
:10111000800766D5DFF8F006006810F00C000600C6
:10112000DFF8F406006810F0030007000C2E01D170
:10113000022F01D0042E1BD1DFF8C4060068400541
:1011400004D5E068002801D10120E2E1DFF8B4060F
:10115000016831F0FE41226951EA02610160DFF865
:10116000B406006801F05EFA00283AD00120D0E110
:10117000E06800281FD0DFF88886D8F8000050F417
:101180008070C8F8000000F079FC0500D8F8000075
:10119000400506D400F072FC401B0328F6D3032060
:1011A000B7E1DFF86006016831F0FE41226951EADB
:1011B0000261016015E0DFF84886D8F8000030F4DD
:1011C0008070C8F8000000F059FC0500D8F8000055
:1011D000400506D500F052FC401B0328F6D303203F
:1011E00097E1207800072ED56069002815D0DFF838
:1011F0002C86D8F8000050F00100C8F8000000F07C
:101200003DFC0500D8F8000080071CD400F036FC37
:10121000401B0328F6D303207BE1DFF80086D8F8D3
:10122000000040084000C8F8000000F027FC05005E
:10123000D8F80000800706D500F020FC401B0328EA
:10124000F6D3032065E12078400740F181805FF00C
:101250000008DFF8CC95D9F80000C0000DD4D9F80B
:10126000000050F08050C9F80000D9F8000010F0DC
:1012700080500090009801208046DFF8A8A5DAF899
:101280000000C00513D4DAF8000050F48070CAF8EA
:10129000000000F0F3FB0500DAF80000C00506D4FA
:1012A00000F0ECFB401B0328F6D3032031E1A068DB
:1012B000012806D1DFF87005016851F001010160D5
:1012C00017E0A06805280AD1DFF85C05016851F035
:1012D00004010160016851F00101016009E0DFF8DB
:1012E00048050168490849000160016831F00401BE
:1012F0000160A068002810D000F0C0FB0500DFF8F6
:1013000028050068800719D400F0B8FB401B41F2A3
:1013100089318842F3D30320FBE000F0AFFB0500E6
:10132000DFF804050068800708D500F0A7FB401B24
:1013300041F289318842F3D30320EAE04046C0B24B
:10134000012805D1D9F8000030F08050C9F800001C
:10135000207880062ED5A069002815D0DFF8CC842F
:10136000D8F8000050F00100C8F8000000F086FB3B
:101370000500D8F8000080071CD400F07FFB401B5C
:101380000328F6D30320C4E0DFF8A084D8F80000D7
:1013900040084000C8F8000000F070FB0500D8F8D5
:1013A0000000800706D500F069FB401B0328F6D338
:1013B0000320AEE0E069002800F0AA80DFF84804CE
:1013C000006810F00C000C286FD0E06902284BD1A7
:1013D000DFF82C94D9F8000030F08070C9F80000D4
:1013E00000F04CFB8046D9F80000800107D500F0E2
:1013F00045FBB0EB08000328F5D3032089E0DFF8B4
:1014000018140A68DFF828040240206A0243606A60
:10141000401E52EA0012A06A52EA0022206B4008E5
:10142000401E52EA4052606B4008401E52EA406241
:10143000E06A52EAC0620A60D9F8000050F0807099
:10144000C9F80000086850F08070086000F016FBD2
:101450000500D9F8000080015AD400F00FFB401BB2
:101460000328F6D3032054E0DFF89483D8F8000073
:1014700030F08070C8F80000DFF89C13086880081E
:10148000800008600A68DFF8AC0302400A6000F0E0
:10149000F5FA0500D8F80000800139D500F0EEFA21
:1014A000401B0328F6D3032033E0E069012801D173
:1014B00001202EE0DFF860030068070017F003004A
:1014C000216A884222D117F0F000616A491EB0EB10
:1014D000011F1BD117F4FE40A16AB0EB012F15D1FB
:1014E00017F07840E16AB0EBC16F0FD117F4C0007C
:1014F000216B4908491EB0EB415F07D117F0C0606E
:10150000616B4908491EB0EB416F01D0012000E03A
:101510000020BDE8F6872DE9F04704000D005FF0DC
:101520000008002C01D10120EAE0DFF80C93D9F883
:10153000000010F00F00A8420ED2D9F800000009F8
:1015400000012843C9F80000D9F8000010F00F008E
:10155000A84201D00120D3E02078C00763D560689D
:10156000032821D1DFF898020068800101D401200E
:10157000C6E000F022F90700DFF8C002874234D34A
:10158000DFF88412086810F0F00F05D0207880078B
:101590002BD5A068002828D108200A6860F307121C
:1015A0000A608020804620E06068022806D1DFF8CB
:1015B00050020068800308D40120A1E0DFF8400257
:1015C0000068400501D401209AE000F09BF8070074
:1015D000DFF86802874208D3DFF82C02082102688E
:1015E00061F30712026080208046DFF81CA2DAF85F
:1015F00000108908890060680143CAF8001000F0F3
:101600003DFA0600DAF8000010F00C006168B0EB5B
:10161000810F08D000F032FA801B41F289318842F4
:10162000F0D303206CE0207880071BD5207840079A
:1016300005D5DFF8D401016851F4E061016020783C
:10164000000706D5DFF8C0010721026861F30D220B
:101650000260DFF8B4110A6832F0F002A0680243B9
:101660000A6008E0B8F1800F05D1DFF89C0101683D
:1016700031F0F0010160D9F8000010F00F00854250
:1016800018D2D9F80000000900012843C9F8000069
:1016900000F0F4F90600D9F8000010F00F00A8429D
:1016A00008D000F0EBF9801B41F289318842F2D377
:1016B000032025E02078400706D553490A6832F414
:1016C000E062E06802430A602078000707D54E48D0
:1016D000016831F46051226951EAC201016000F0F1
:1016E00011F85749484A1268C2F30312895C11F095
:1016F0001F01C840464908604648006800F092FF54
:10170000BDE8F08770B44048056815F00C05042D5D
:1017100001D13E4832E0056815F00C05082D01D1D5
:1017200048482BE0006810F00C000C2825D13A4DF9
:10173000286810F0030002002868C0F30310401C62
:101740000400032A08D13F48B0FBF4F62868C0F330
:1017500006204643310007E02C48B0FBF4F6286829
:10176000C0F30620464331002868C0F34160401CA6
:1017700040000300B1FBF3F000E0002070BC7047B4
:1017800023480068704780B5FFF7FAFF2E491E4ACC
:101790001268C2F30222895C11F01F01C84002BD29
:1017A00080B5FFF7EDFF2849174A1268C2F3C2223D
:1017B000895C11F01F01C84002BD10B4164A1468BC
:1017C00014F003041068C0F303135B1C032C07D14F
:1017D0001C48B0FBF3F11068C0F30620414306E05B
:1017E0000A48B0FBF3F11068C0F3062041431068CB
:1017F000C0F34162521C5200B1FBF2F010BC7047C2
:101800000010024004100240081002400024F400BE
:10181000E4040020DC0400200C100240941002407C
:101820005810024000700040901002409810024092
:101830000C809F01FFFFEEFE0020024001B4C404B3
:10184000B046000800127A0010470008BBBBE1B1A7
:10185000B2F5803F80F07E80022A1ED98C46B1FB13
:10186000F2F102FB11C31B0443EA1043B3FBF2FC89
:1018700002FB1C3380B240EA0343B3FBF2F002FBED
:10188000103240EA0C4000237047022A05D98446F2
:10189000B0FBF2F002FB10C270474AB105D100F074
:1018A000010249085FEA30007047002200237047B8
:1018B00000F0E8BE0B0002000021002070479042BB
:1018C00071EB030CF6D3B3F5803F2FD2F0B5B3FA2A
:1018D00083F7B1FA81F4A7F10F0E3D1B5340CEF10F
:1018E000200602FA0EF2F3415340B5F10F0746D835
:1018F0000F3C2C444140C4F12006A040F14141403E
:10190000B1FBF3F603FB1611A2FB0645001BA94130
:1019100002D2761E8018594180EA010221FA0EF3A4
:1019200062FA0EF200215A403046F0BD30B4B1FBED
:10193000F3FC03FB1C11A2FB0C45001BA94103D2C5
:10194000ACF1010C8018594130BC02460B46604690
:1019500000217047B2F1807F65D3F0B5B2FA82F70B
:10196000B1FA81F4C7F10F063D1B22FA06F307F125
:10197000110EF24120355A40B5F10F07B8D9414058
:10198000C4F12006A040F1414140B1FBF3FC03FB50
:101990001C11A2FB0C45001BA94103D2BCF1010C98
:1019A000801859410F2F12D30F3FC90341EA50410C
:1019B000B1FBF3F603FB1611A2FB0645D4EBC030D6
:1019C000A94102D2761E8018594146EACC3C07B3A1
:1019D0004140C7F12006B840F1414140B1FBF3F668
:1019E00003FB1611A2FB0645001BA94102D2761E7D
:1019F0008018594180EA010221FA0EF3C7F1200450
:101A000062FA0EF20CFA07F05A402CFA04F1304355
:101A1000F0BD80EA010221FA0EF3002162FA0EF213
:101A200060465A40F0BD8C46B1FBF2F102FB11C397
:101A30001B0243EA1063B3FBF2FC02FB1C331B02E4
:101A40004CEA002043EA1063B3FBF2FC02FB1C33B8
:101A50001B024CEA002043EA1063B3FBF2FC02FBDA
:101A60001C331B024CEA002043EA1063B3FBF2FC78
:101A700002FB1C324CEA002000237047014800683A
:101A8000704700BF000C0020704770477047F0B4EB
:101A90000246106895681318506803EB5004C0079D
:101AA00048BF4D44A3422DD013F8016B16F003003C
:101AB00004BF13F8010BC01C31090F2907D113F81B
:101AC000011B0F3103E013F8017B05F8017B401E79
:101AD000F9D10029E6D013F8010BC6F38106032ED5
:101AE00008BF13F8016B00EB062040422844002693
:101AF000B71E8F421EBF10F8017B05F8017B761CD4
:101B0000F6D1CFE7F0BC02F10C00704710B4020030
:101B1000002A32D1DFF8F000036813F4C063B3F594
:101B2000806F23D1DFF8E4301C6834F480741C60CB
:101B30000123046863F34A240460DFF8D4000368D7
:101B400032204343DFF8CC00B3FBF0F0401C01002F
:101B5000DFF8C40003685B0503D5002901D0491EE6
:101B6000F6E70068400545D5032044E0DFF89C0017
:101B7000036833F4807303603CE0B2F5007F32D138
:101B8000DFF88400036813F4C063B3F5806F23D1DA
:101B9000DFF878301C6854F480741C6001230468FA
:101BA00063F34A240460DFF868000368322043438B
:101BB000DFF86000B3FBF0F0401C0100DFF85800D4
:101BC00003685B0503D5002901D0491EF6E70068CC
:101BD00040050FD503200EE0DFF83000036853F412
:101BE0008073036006E0DFF820000223046863F3DB
:101BF0004A240460002010BC70470848016851F472
:101C0000804101607047000000700040807000401B
:101C1000E404002040420F001470004008700040AF
:101C200010B410F00703DFF8284122684FF6FF01D7
:101C30000A4052EA0322DFF81C110A43226010BC5A
:101C4000704743480068C0F302207047010049B262
:101C5000002909D4012210F01F018A403E490300E7
:101C60005BB25B0941F82320704710B4020052B206
:101C7000002A05D40A01394B040064B21A5508E061
:101C80000A01374B040064B214F00F04234403F834
:101C9000042C10BC704770B4030013F00704D4F197
:101CA0000700052801D3042001E0D4F10700251D19
:101CB000072D01D2002500E0E51E012616FA00F0EE
:101CC000401E0140A94016FA05F56D1E2A40114339
:101CD000080070BC704710B50400601EB0F1807F32
:101CE00001D301200EE0601E1E4908600F215FF045
:101CF000FF30FFF7BAFF00201B49086007201B498F
:101D00000860002010BD10B504002000FFF788FF18
:101D100010BDF8B504000D001600FFF792FF070094
:101D2000320029003800FFF7B6FF0100200040B262
:101D3000FFF79BFFF1BD10B50400200040B2FFF794
:101D400085FF10BD10B504002000FFF7C4FF10BDD3
:101D50000CED00E00000FA0500E100E000E400E026
:101D600018ED00E014E000E018E000E010E000E012
:101D700062F30F2262F31F42401810F0030308D0F1
:101D8000C91A1FD3DB0748BF00F8012D28BF20F870
:101D9000022D130030B414461546103928BF20E92F
:101DA0003C00FAD8490728BF20E90C0048BF40F89A
:101DB000042D890028BF20F8022D48BF00F8012D0E
:101DC00030BC7047C91818BF00F8012DCB0728BFD9
:101DD00000F8012D70471C502DE9F84F0500002731
:101DE0005FF00008286800037AD55FF00009DFF88B
:101DF0003CA3DAF80000C0000DD4DAF8000050F07F
:101E00008050CAF80000DAF8000010F0805000900E
:101E1000009801208146DFF818B3DBF8000050F489
:101E20008070CBF80000FFF729FE0600DBF8000009
:101E3000C00506D4FFF722FE801B0328F6D303203B
:101E400007003800C0B200283FD1DFF8E8B2DBF865
:101E5000000010F440700400002C15D0286D84425E
:101E600012D0DBF8000030F440700400DBF8000012
:101E700050F48030CBF80000DBF8000030F4803004
:101E8000CBF80000CBF80040E0070FD5FFF7F6FDD8
:101E90000600DBF80000800708D4FFF7EFFD801B89
:101EA00041F289318842F4D3032007003800C0B2E0
:101EB000002808D1DBF8001031F44071286D01438F
:101EC000CBF8001002E0B84600E0B8464846C0B281
:101ED000012805D1DAF8000030F08050CAF800007F
:101EE0002878C00707D5DFF850120A6892089200D8
:101EF000686802430A602878800707D5DFF838123F
:101F00000A6832F00C02A86802430A602878400789
:101F100007D5DFF824120A6832F03002E86802437D
:101F20000A602878000707D5DFF80C120A6832F03B
:101F3000C002286902430A602878C00607D5DFF886
:101F4000F8110A6832F44072686902430A6028781E
:101F5000800607D5DFF8E0110A6832F44062A8690C
:101F600002430A602878400607D5DFF8CC110A68DA
:101F700032F44052E86902430A602878000607D527
:101F8000DFF8B4110A6832F44042286A02430A605A
:101F90002868C00507D5DFF8A0110A6832F440327E
:101FA000686A02430A602868800307D5DFF88C114D
:101FB0000A6892089200A86A02430A6028688005AD
:101FC00007D5DFF874110A6832F44022E86A024348
:101FD0000A602868400511D5DFF85C110A6832F400
:101FE0004012286B02430A60286BB0F5801F05D1B0
:101FF000DFF84C01016851F4801101602868000588
:1020000011D5DFF834110A6832F44002686B0243DC
:102010000A60686BB0F5800F05D1DFF82401016814
:1020200051F4801101602868C00411D5DFF808114F
:102030000A6832F04072A86B02430A60A86BB0F1E4
:10204000807F05D1DFF8F800016851F4801101604C
:102050002868800411D5DFF8E0100A6832F0406289
:10206000E86B02430A60E86BB0F1006F05D1DFF85E
:10207000D000016851F4801101602868400411D536
:10208000DFF8B4100A6832F04062286C02430A603C
:10209000286CB0F1006F05D1DFF8A400016851F49D
:1020A000801101602868000411D5DFF88C100A68DF
:1020B00032F04052686C02430A60686CB0F1805F95
:1020C00005D1DFF87C00016851F480310160286897
:1020D000C00311D5DFF860100A6822F04042A86CF6
:1020E00002430A60A86CB0F1804F05D1DFF85000C0
:1020F000016851F4803101602868400311D5DFF890
:102100003C100A6832F44012E86C02430A60E86C42
:10211000B0F5001F05D1DFF82800016851F48011E7
:1021200001604046C0B2BDE8F28F00005810024086
:102130000070004090100240881002409C10024045
:102140000C10024080B500F09FFA00F020F800F07B
:1021500010F900F05EF800F098F800F0D2F8A3480B
:10216000A349902200F0A2FAA248A3494C2200F011
:102170009DFAA248A2494C2200F098FA00F0DAFA3F
:1021800000F0F2FA00F0F6FA00F02EFBFEE718B5C8
:1021900093B03821002205AC2000FFF7E9FD14219F
:1021A00000226C462000FFF7E3FD4FF40070FFF7BC
:1021B000ADFC022005904FF48070089040200990FB
:1021C00002200C9002200D9001200E9009200F900B
:1021D00002201090022011900220129005A8FEF714
:1021E0002BFF002801D000F017F90F2000900320EA
:1021F0000190002002900020039000200490022112
:102200006846FFF788F9002801D000F005F914B0FE
:1022100010BD18B587B01021002203AC2000FFF7D5
:10222000A7FD0C2100226C462000FFF7A1FD744C95
:102230007448206047F6FF4060601020A0600120D5
:10224000E060002020618020A061200000F0D2FA30
:10225000002801D000F0E0F84FF48050039003A96B
:10226000200000F06BFC002801D000F0D5F8002021
:102270000090002002906946200000F0A5FD002893
:1022800001D000F0C9F808B010BD18B587B0102112
:10229000002203AC2000FFF76BFD0C2100226C46EE
:1022A0002000FFF765FD544C5748206047F6FF407B
:1022B00060601020A0600120E0600020206180208C
:1022C000A061200000F096FA002801D000F0A4F8E8
:1022D0004FF48050039003A9200000F02FFC002849
:1022E00001D000F099F8002000900020029069468B
:1022F000200000F069FD002801D000F08DF808B042
:1023000010BD10B53A4C414820605FF4E130606088
:102310000020A0600020E060002020610C206061AF
:102320000020A0610020E0610020206200206062A7
:102330000020A0622000FDF74FFF002801D000F030
:102340006BF80021200000F0D2FD002801D000F041
:1023500063F80021200000F0F5FD002801D000F016
:102360005BF8200000F0A0FD002801D000F054F838
:1023700010BD10B586B01421002201AC2000FFF77B
:10238000F7FC2348016851F002010160016811F077
:10239000020100910099016851F00101016000689B
:1023A00010F00100009000981A4C002240F2A22187
:1023B000200000F008F9A2200190012002900020E6
:1023C00003900020049001A9200000F027F84FF4AA
:1023D00000700190012002900020039003200490DF
:1023E00001A9200000F01AF806B010BDB8060020C0
:1023F00068080020900900200C0B002044090020F0
:10240000C00A0020000400400008004000380140DD
:102410004C1002400004004872B6FEE7F8B4030016
:1024200000250868E840002800F0CB8001260F68EE
:1024300016FA05F007403A00002A00F0C08008793B
:1024400010F00300012804D0087910F003000228DE
:1024500019D19F685FF0030C68001CFA00FC37EA92
:102460000C07D1F80CC068001CFA00FC5CEA0707F6
:102470009F605868AE40B0434E68C6F30016AE4049
:10248000304304005C60087910F0030003280AD090
:10249000DE68032768008740BE438F686800874076
:1024A0003E433400DC60087910F00300022816D1A6
:1024B0002800C00803EB8000006A0F26AF0017F069
:1024C0001C07BE40B0430E69AF0017F01C07BE40AA
:1024D000304304002800C00803EB800004621E683B
:1024E000032768008740BE430F7917F00307680091
:1024F00087403E4334001C60486810F4403F5ED083
:102500003D48066856F001060660006810F00100BC
:1025100000900098394E2800800856F820000F27B8
:102520005FEA850C1CF00C0C17FA0CF7B843B3F1FA
:10253000904F01D1002419E0314CA34201D1012474
:1025400014E0304CA34201D102240FE02E4CA342F0
:1025500001D103240AE02D4CA34201D1042405E05B
:102560002B4CA34201D1052400E00624AF0017F054
:102570000C07BC4020432C00A40846F82400254E3C
:10258000346894434F68FF0200D514433460224EF0
:10259000306890434F68BF0200D5104330601F4C35
:1025A000266896434F68BF0300D5164326601C4833
:1025B000046894434F68FF0300D5144304606D1C06
:1025C0002FE7F1BC70471300DBB2002B03D00B00E8
:1025D0009BB2836102E00B009BB28362704710B430
:1025E00042690B009BB213400C00A4B2944354EA1E
:1025F0000344846110BC7047601002400800014031
:102600000004004800080048000C00480010004882
:1026100000140048080401400C0401400404014077
:102620000004014038B5040000251349086800285B
:102630001DD04FF47A700968B0FBF1F00F490968BA
:10264000B1FBF0F0FFF77EFB00280DD1102C08D273
:10265000002221005FF0FF30FFF75BFB08480460B9
:1026600007E00120050004E00120050001E0012051
:1026700005002800C0B232BDE0040020E4040020C0
:10268000DC0400207047000010B500240320FFF791
:102690003AFB0F20FFF7C6FF002802D001200400FC
:1026A00001E0FEF729FC2000C0B210BD103A07D3AC
:1026B00030B4B1E83810103AA0E83810F9D230BC84
:1026C000530724BFB1E80810A0E8081044BF51F830
:1026D000043B40F8043BD20724BF31F8022B20F81A
:1026E000022B44BF0B7803707047121F17D35B0097
:1026F00009D151F8043B20F8023B1B0C121F20F8B3
:10270000023BF6D20BE051F8043B00F8013B1B0AF8
:1027100020F8023B1B0C121F00F8013BF3D238BF1C
:10272000121D521E24BF11F8013B00F8013BF8D8DE
:102730007047000080B500F06FFC00F018FDFFF757
:1027400022F8074B01224FF47A71B0FBF1F101201E
:1027500000F0A1FD0348012101700021416001BD8D
:10276000393500088C0B002080B500F043FE00F0E6
:1027700051FE01BD80B51A48042101701949498DE7
:10278000B1F5966F12D0B1F5166F12D0B1F5965F14
:1027900012D0B1F5165F12D0B1F5964F12D0B1F547
:1027A000164F12D0B1F5614F12D013E02021017005
:1027B00010E0102101700DE0082101700AE00421F1
:1027C000017007E00321017004E00421017001E0C1
:1027D0000121017000F03CFE00F06CFE01BD00BF65
:1027E0000D0C0020E805002080B500F085FE00F00B
:1027F00084FE01BD10B50400002C01D1012035E09C
:1028000094F83D00002805D1002084F83C00200009
:10281000FEF78AFB022084F83D00211D206800F0AD
:102820001DFA012084F84800012084F83E000120B0
:1028300084F83F00012084F84000012084F8410022
:10284000012084F84200012084F84300012084F82C
:102850004400012084F84500012084F8460001204E
:1028600084F84700012084F83D00002010BD0100DD
:1028700091F83D00012801D0012048E0022081F8B4
:102880003D000868C06850F001000B68D860086817
:10289000DFF87C30984221D00868B0F1804F1DD01D
:1028A0000868DFF87030984218D00868DFF86830A0
:1028B000984213D00868DFF8643098420ED0086858
:1028C000DFF85C30984209D00868DFF85830984249
:1028D00004D00868DFF85030984211D10868836846
:1028E000DFF8480003401A00062A0FD0B2F5803FF7
:1028F0000CD00868006850F001000B68186005E013
:102900000868006850F001000B68186000207047EC
:10291000002C01400004004000080040000C004072
:102920000034014000400140005001400700010018
:1029300010B504002068006980071AD52068C068B7
:10294000800716D57FF002002168086101202077FA
:102950002068806910F0030F03D0200000F0CEFD46
:1029600005E0200000F0CBFD200000F0C9FD0020B4
:1029700020772068006940071AD52068C0684007A2
:1029800016D57FF0040021680861022020772068B6
:10299000806910F4407F03D0200000F0AFFD05E017
:1029A000200000F0ACFD200000F0AAFD0020207700
:1029B0002068006900071AD52068C068000716D58E
:1029C0007FF0080021680861042020772068C06932
:1029D00010F0030F03D0200000F090FD05E0200070
:1029E00000F08DFD200000F08BFD00202077206896
:1029F0000069C0061AD52068C068C00616D57FF0E9
:102A0000100021680861082020772068C06910F450
:102A1000407F03D0200000F071FD05E0200000F0B1
:102A20006EFD200000F06CFD00202077206800691A
:102A3000C0070AD52068C068C00706D57FF001002E
:102A400021680861200000F05CFD20680069000634
:102A50000AD52068C068000606D57FF0800021688E
:102A60000861200000F04EFD20680069C0050AD50D
:102A70002068C068000606D57FF480702168086170
:102A8000200000F040FD2068006940060AD520685B
:102A9000C068400606D57FF040002168086120002C
:102AA00000F032FD2068006980060AD52068C06801
:102AB000800606D57FF0200021680861200000F024
:102AC00024FD20680069C0020AD52068C068C002E1
:102AD00006D57FF4801021680861200000F016FD03
:102AE0002068006980020AD52068C068800206D587
:102AF0007FF4001021680861200000F008FD2068C4
:102B0000006940020AD52068C068400206D57FF4FB
:102B1000800021680861200000F0FAFC206800694C
:102B200000020AD52068C068000206D57FF40000C4
:102B300021680861200000F0ECFC10BDF8B504002D
:102B40000D00002694F83C00012801D1022083E00A
:102B5000012084F83C00022084F83D00206887684A
:102B6000DFF83C02074037F47F4720688760286819
:102B7000002862D0103860D010385ED010385CD099
:102B8000103850D010383AD0103842D010381BD0FE
:102B90004FF47961401A16D04FF48051401A21D079
:102BA0005FF47E21401A48D0103846D0103844D007
:102BB000103842D0103840D010383ED010383CD0B9
:102BC00010383AD03EE03FE0EB686A68A9682068B8
:102BD00000F0EEF82068806850F077000700206869
:102BE000876031E0EB686A68A968206800F0E0F867
:102BF0002068806850F480402168886024E0EA689A
:102C00006968206800F09EF85021206800F0BFF845
:102C10001AE0EA686968206800F0A6F86021206878
:102C200000F0B5F810E0EA686968206800F08AF8FA
:102C30004021206800F0ABF806E02968206800F029
:102C4000A6F801E001200600012084F83D000020E4
:102C500084F83C003000C0B2F2BD000010B404683B
:102C6000314B984216D0B0F1804F13D0DFF8BC2022
:102C700090420FD0DFF82C2190420BD0DFF82821B2
:102C8000904207D0DFF8A820904203D0DFF8B020B0
:102C9000904203D134F070044A68144398421ED025
:102CA000B0F1804F1BD0DFF88420904217D0DFF8BE
:102CB000F420904213D0DFF8F02090420FD01C4A4D
:102CC00090420CD01B4A904209D01B4A904206D039
:102CD0001A4A904203D0DFF86820904203D134F4BE
:102CE0004074CA68144334F080044A691443046091
:102CF0008A68C2620A68826298420FD00C4A904287
:102D00000CD00C4A904209D00B4A904206D00B4A94
:102D1000904203D0DFF82820904201D10A69026373
:102D20000122426110BC7047002C014000040040A9
:102D3000003401400040014000440140004801408F
:102D40000050014010B4046A036A5B085B00036230
:102D5000836933F0F00353EA021334F00A040C439E
:102D60008361046210BC704710B4036A33F010032F
:102D700003628369046A33F4704353EA023334F024
:102D8000A00454EA01148361046210BC7047836894
:102D9000064A13400B4353F007038360704700005B
:102DA00088FFCEFF00080040000C00408FFFCFFFDF
:102DB00010B4846834F47F440C43144354EA03246D
:102DC000846010BC7047000070B4020092F83C00B0
:102DD000012801D1022055E0012082F83C000220A8
:102DE00082F83D001068436810688468DFF89850E6
:102DF0001068A84209D01068DFF89060B04204D093
:102E00001068DFF88C60B04203D133F47003486877
:102E10000343DFF880000340086803431068436001
:102E20001068A84221D01068B0F1804F1DD0106802
:102E3000DFF86450A84218D01068DFF86050A8424C
:102E400013D01068DFF85850A8420ED01068DFF891
:102E50003C50A84209D01068DFF84850A84204D07E
:102E60001068DFF82C50A84205D134F0800488683F
:102E7000044310688460012082F83D00002082F83D
:102E80003C00002070BC7047002C01400034014021
:102E9000005001408FFFFFFD00040040000800408B
:102EA000000C004000400140010091F88000012822
:102EB00001D102201AE0012081F880002420C1F80D
:102EC00084000868026808680068400840000B68D1
:102ED000186032F000520020486608680260202026
:102EE000C1F88400002081F880000020704770B590
:102EF00004000D0094F88000012801D1022020E098
:102F0000012084F880002420C4F88400206806682A
:102F100020680068400840002168086020688068D8
:102F200020F06040284321688860200000F035F8D8
:102F3000206806602020C4F88400002084F8800007
:102F4000002070BD70B504000D0094F880000128C9
:102F500001D1022020E0012084F880002420C4F860
:102F600084002068066820680068400840002168E6
:102F700008602068806830F06060284321688860BD
:102F8000200000F00AF8206806602020C4F88400C1
:102F9000002084F88000002070BDF0B4416E00294C
:102FA00006D10121A0F86A100121A0F868102DE0D7
:102FB00008210A0008210B0001688968490E11F0F8
:102FC00007010C0001688968490F0D00104E114F70
:102FD0009C465FFA8CFC2900C9B2795C01FB0CFCB1
:102FE0002900C9B2715C9CFBF1F1A0F86A1094460B
:102FF0005FFA8CFC2100C9B2795C01FB0CFC21005A
:10300000C9B2715C9CFBF1F1A0F86810F0BC70478C
:10301000084700080047000810B5104C01220221A3
:103020002000FFF7D0FA012220212000FFF7CBFA81
:10303000012280212000FFF7C6FA00220221200091
:10304000FFF7C1FA002220212000FFF7BCFA00227E
:1030500080212000FFF7B7FA10BD00BF0004004830
:1030600010B400231A0092B28A5C002A07D01A001A
:1030700092B28A5C1C00A4B202555B1CF2E710BC41
:103080007047724A11000020082803D200230B5415
:10309000401CF9E741F64D73136070472DE9F0418C
:1030A0006B4C25000026D02E03D20020A855761C9C
:1030B000F9E7208850F002002080208850F00100BD
:1030C0002080208850F008002080208850F00400E4
:1030D0002080208850F0100020800020A080002058
:1030E000E08000206080002020810020A08301205B
:1030F0002085A18D4FF6F0700140A185A18D4FF67E
:10310000CF700140A185A18D4FF63F700140A18590
:10311000A08D50F48070A0854FF4165060854D4905
:1031200014F18200FFF79CFF4B4F390014F1A60009
:10313000FFF796FFDFF82481414614F16E00FFF798
:103140008FFF474914F14C00FFF78AFF454914F1FE
:103150005800FFF785FF414614F1B200FFF780FFEA
:10316000390014F1C000FFF77BFFBDE8F0812DE9C5
:10317000F047364CA0463C4E00203060082221002B
:10318000FC2000F078F85FF0000A5FF0000950467C
:1031900080B2042808D2504680B238F8100010EBF4
:1031A00009091AF1010AF2E7484680B200280BD15A
:1031B000504680B208EB400030F8020C00280ED1D7
:1031C000B8F8000000280AD1FFF75BFF08212000B3
:1031D00000F0A0F908222100FC2000F049F81C4C66
:1031E000250000203060D0222100F82000F043F8B4
:1031F00000260027300080B2682806D2300080B256
:1032000035F81000C719761CF4E7380080B20028A2
:103210000AD1300080B205EB400030F8020C0028E3
:103220000DD1288800280AD1FFF738FFD0212000CF
:1032300000F070F9D0222100F82000F019F80B49B5
:1032400014F14C00FFF70CFFBDE8F087F00B0020F5
:10325000E80500208046000890460008A0460008C7
:10326000E04600086C460008580B0020EC460008B9
:1032700003000120704770B4850215F100652C0031
:103280000023934205D226680E601B1D241D091DD4
:10329000F7E770BC70472DE9F04105000F001400FE
:1032A0001E00002C3FD0012C02D1022004007F0818
:1032B000DFF82881781E2900C9B258F8211048602B
:1032C00010202900C9B258F821108860601E29001A
:1032D000C9B258F82110C86080202900C9B258F836
:1032E0002110886100202900C9B258F82110086116
:1032F0002800C0B258F82000FFF77CFA002801D05F
:10330000FFF78AF836482900C9B240F82160280042
:10331000C0B258F82000FFF7AAFA2800C0B258F847
:103320002000FFF7A4FABDE8F0812DE9F0478246BE
:103330000D0016001F00089CDDF82880DDF82C9099
:1033400028485146C9B2491050F821104D605146E5
:10335000C9B2491050F82110320092B28A60514629
:10336000C9B2491050F821103A0092B2CA605146D1
:10337000C9B2491050F82110220092B20A61514698
:10338000C9B2491050F821100C224A615146C9B205
:10339000491050F8211000228A615146C9B24910E3
:1033A00050F821100022CA615146C9B2491050F8A4
:1033B0002100FCF711FF002801D0FFF72DF80A4883
:1033C0005146C9B2491040F8218008485146C9B257
:1033D000491040F82190BDE8F08700000C00002063
:1033E000AC0B002000000020D00B0020DC0B0020E4
:1033F0007047000080B5FEF7C6F9054B01224FF477
:103400007A71B0FBF1F10220FFF745FF01BD00BF6B
:10341000693F000800200100C9B202290DDA0949FC
:1034200000220300DBB241F83320074A0300DBB27D
:1034300001EBC3014A60401CEDE70021034A117013
:10344000704700BFC00B0020A14800080C0C0020F2
:10345000F8B5002202215FF09040FFF7B4F8104861
:10346000104903911049029101210191818DC1F30D
:10347000811189B20091818DC1F301139BB290F843
:103480002C2012F00F02418D0020FFF74EFF4FF469
:10349000807206490648FDF7DAF905B000BD00BFA5
:1034A000E8050020FF3A0008A13C0008E8040020DD
:1034B000B806002000200949088009480949086029
:1034C0000020094948700020084908800020084968
:1034D0000870002007490880704700BF040C0020D6
:1034E000CC420008FC0B0020E80B0020060C00205A
:1034F0000E0C0020080C0020704770477047704782
:103500007047704770477047704770477047704703
:103510007047704730B400230500891E4908002415
:103520008C4204D22A88D318AD1C641CF8E7DA4315
:10353000521C2A8030BC704700200100C9B2042907
:103540001BDA0E490200D2B211F83220012A12D140
:103550000200D2B201EBC202526812F1010F0AD08E
:103560000200D2B201EBC2025268521C0300DBB26D
:1035700001EBC3014A60401CDFE770478C0B002061
:103580002DE9F84F002202230024DFF870592E00A5
:10359000B078F77857EA0027307996F805E05EEAC8
:1035A000002E41F22C10BC461FFA8CFC844515DA23
:1035B000BC461FFA8CFC41F28408C4450EDBF4467D
:1035C0001FFA8CFC1CFA87FC41F22D18C44505DA61
:1035D0005FF0010C62465FF0010C644641F2840C1E
:1035E000B8461FFA88F8E04511DBB8461FFA88F89C
:1035F00080450CDAF0461FFA88F818FA87F88045FB
:1036000005DA5FF0010842465FF002084446F046E2
:103610001FFA88F8B8F1000F02D15FF000084246A7
:1036200090465FFA88F8B8F1000F3BD1B8461FFA10
:1036300088F8804507DAB8461FFA88F8E04502DBCB
:103640005FF003084346B8461FFA88F8E04506DBFA
:10365000BC461FFA8CFC844501DA03200300704647
:1036600080B2002801D1032003001800C0B2022854
:103670000CD1DFF88C0896F801C05CF0800C80F863
:1036800001C05FF0020C80F802C00BE0DFF87008A8
:1036900096F801C05CF0800C80F801C05FF0030C6C
:1036A00080F802C0DFF858084078002874D1A84696
:1036B00098F8029098F803C05CEA092CA1465FFADA
:1036C00089F9B9F1010F06D141F28409BCEB09096E
:1036D000ADF8029005E041F28409BCEB0909ADF8B0
:1036E000029098F804C098F8059059EA0C295FF008
:1036F000000C61468C46CA461FFA8CFC1FFA8AFAF7
:10370000D44524D2DFF8FCC7BDF802A01AFA81FA2A
:103710005CF82AC060468C461FFA8CFC08EB4C0C07
:103720009CF807A08DF801A08C461FFA8CFC08EBD2
:103730004C0C9CF808A08DF800A09DF800C080F803
:1037400000C09DF801C080F801C0491CD2E7DFF835
:10375000B8C7DCF800A09AF800A085F801A0BA4626
:103760001FFA8AFA5FEA1A2A85F802A0EF70CA46A1
:103770001FFA8AFADCF800C09CF806C09AFBFCFC31
:103780005FF0000A85F804A085F805C05FF0080A1C
:10379000DFF878B7ABF800A0BDE8F18FF0B40021F6
:1037A0000022DFF858371C00A078E57855EA00259C
:1037B00041F22C102E00B6B2864209DA2E00B6B2C3
:1037C00041F28407BE4203DB0126310001263200AC
:1037D0002E00B6B241F28407BE4207DB2E00B6B21D
:1037E000864203DA01200100022002000800C0B274
:1037F000002807D1DFF80807667856F08006467083
:1038000002268670DFF8F806407800281FD11000E5
:10381000C0B2012809D1DFF8EC062E00B6B200EBE9
:103820008600DFF8EC66805908E0DFF8D8062E0045
:10383000B6B200EB8600DFF8D86680591E795F7952
:1038400057EA062707800826DFF8C0763E80F0BCDE
:1038500070472DE9FC4F002200230024DFF89CA6CE
:103860005546A878EE7856EA002641F27927BE42FE
:1038700006DAB6F5805F03DB0120020001200300B9
:10388000B6F5815F07DB41F28400864203DA01204E
:1038900002000220030041F2840E764507DB41F26C
:1038A0002C10864203DA01200200032003001000DE
:1038B000C0B200280BD1DFF8480695F801C05CF0D3
:1038C000800C80F801C05FF0020C80F802C02879FB
:1038D00095F8058058EA00281000C0B2012837D1B9
:1038E0001800C0B2012807D116FA88F041F27A2CEC
:1038F000604501DB012004001800C0B2022807D196
:1039000016FA88F041F2850C604501DB01200400C5
:103910001800C0B2032807D116FA88F041F22D1C16
:10392000604501DB01200400404680B2002803D03E
:103930002000C0B201280BD1DFF8C40595F801C002
:103940005CF0800C80F801C05FF0030C80F802C0CE
:10395000DFF8AC054078002840F0CF80CDF804A017
:10396000DDF804C09CF804C0DDF8049099F80590D7
:1039700059EA0C29DFF890C5DCF800B09BF800B0DC
:103980008AF801B0DCF800C09CF806C009FB0CFC0A
:103990008AF802C05FF0000C61468C46CB461FFAE5
:1039A0008CFC1FFA8BFBDC4580F0A08016FA81FCB2
:1039B000BCF5805F10DB16FA81FCBCF5815F0BDA89
:1039C000DFF850C516FA81FB0CEB8B0CBCF5804C74
:1039D000DCF800C0604669E016FA81FCBCF5815F46
:1039E0000FDB16FA81FCF4450BDADFF82CC516FA6A
:1039F00081FB0CEB8B0CBCF5814CDCF800C0604605
:103A000054E016FA81FCBCF5815F0FDB16FA81FCED
:103A1000F4450BDADFF800C516FA81FB0CEB8B0CD2
:103A2000BCF5814CDCF800C060463FE016FA81FC32
:103A3000F44511DB16FA81FC41F22C1BDC450BDA54
:103A4000DFF8C0C416FA81FB0CEB8B0CDFF8C0B4B6
:103A50005CF80BC0604629E016FA81FCF44511DBE6
:103A600016FA81FC41F22C1BDC450BDADFF894C41A
:103A700016FA81FB0CEB8B0CDFF894B45CF80BC0EE
:103A8000604613E016FA81FC41F22C1BDC450DDB8D
:103A900016FA81FCBC4509DADFF880C416FA81FB0E
:103AA0000CEB4B0CDFF878B4DC446046B0F800B0A7
:103AB0001FFA8BFB5FEA1B2B8DF801B0B0F800B04A
:103AC0008DF800B09DF801C08B461FFA8BFB0AEB06
:103AD0004B0B8BF803C09DF800C08B461FFA8BFB85
:103AE0000AEB4B0B8BF804C0491C56E79AF802709E
:103AF0007F1DDFF818C4ACF80070BDE8F38FF8B58F
:103B00000FF20922DFF81C040178012000F01CFAF2
:103B1000DFF814040068416ADFF8102410780128E7
:103B200003D01078002840F0B980DFF80404838DBA
:103B3000C3F300239BB2002B10D0DFF8F8331C88AE
:103B40004FF4807594FBF5F605FB16441C80DFF8F6
:103B5000AC431D8861551C88641C1C80838DC3F395
:103B600000239BB2002B64D1FF230C00E4B2302C65
:103B700006DB0C00E4B23A2C02DAB1F13004230087
:103B80000C00E4B2412C06DB0C00E4B2472C02DA54
:103B9000B1F1370423000C00E4B23A2C01D13A24ED
:103BA00023000C00E4B23A2C03D01C00E4B2FF2C3A
:103BB00003D10024DFF880532C801C00E4B2FF2CDA
:103BC0006CD0DFF8744325886E1C2680ADB2002DC2
:103BD0000BD10800C0B23A2806D12088401C2080B2
:103BE0000020DFF85023108058E025886D1E022643
:103BF00095FBF6F406FB14542500EDB2012D12D10D
:103C0000BE4EDFF830532F88F75D1F43B5F800C074
:103C100006F80C702F887F1C2F802D88354415F8EE
:103C2000015C290005E01801B44AC24D2D885055A9
:103C300034E0C04B1B885B1E002B02D0012B12D03E
:103C40002CE0AE4B1C782A2C0CD01B78008D9BB23C
:103C5000834202D00520107004E001201070B748A4
:103C6000A94A10601AE00800C0B2192808DAA64A6A
:103C700010680B00DBB21B011844007B002806D142
:103C80009F4851F0800242700122827005E0106866
:103C90000B00DBB21B0118441060FFE7F1BD704759
:103CA00010B5A24C2078042824D19848A1490A884C
:103CB00003889A4211D091480A88805C9A4A126817
:103CC00090620888401C08800FF2410295480178F4
:103CD000012000F039F901200DE0098800888142B7
:103CE00008D10FF229028F480178012000F02CF949
:103CF00005202070002010BD80B5FEF73BFD9048E8
:103D0000016831F40051016001BD00002DE9F84F58
:103D10000027DFF8188298F80000012804D098F8EE
:103D20000000052840F0E78098F80000401E04D00D
:103D3000C01E012840F2DC80DDE0DFF8F491B9F824
:103D40002C00C0F3002080B200281ED0DFF8ACA108
:103D5000DFF8E0B1BBF80010891E504600F042F9D0
:103D6000C0F3072100F0FF02BBF80030534413F802
:103D7000013C99421FD1BBF80030534413F8023C78
:103D80009A4218D101231F0015E0002200210800EB
:103D9000C0B2684B1B8880B2984206D257480B00CD
:103DA000DBB2C05C8218491CF1E71000C0B20028E9
:103DB00001D1012007003800C0B2012840F09280F4
:103DC000022088F80000DFF838A19AF801000028E6
:103DD00003D14D480068806880479AF801000028A8
:103DE00011D000200100C9B2052909DA0100C9B2C9
:103DF0001AF80110414A0300DBB2D154401CF1E72C
:103E00000521424A1180DFF8F4A0B9F828008AF8A9
:103E10000000B9F82C00C0F3002080B2002816D0B2
:103E2000DFF8E8B0BBF80010891E504600F0DAF861
:103E30000400200080B2000ABBF80010514401F8D1
:103E4000010CBBF80000504400F8024C1DE02F4963
:103E50000888401E08800022002006003000C0B202
:103E60000B885B1E984206DA3000C0B21AF80000D8
:103E70008218761CF2E71500ED436D1C088850444B
:103E800000F8015C00202C490880032088F800001D
:103E9000002028490880042088F80000012202211F
:103EA0005FF09040FEF78FFBB9F82C00C0F30020C4
:103EB00080B2002807D01C480168096851F08001D1
:103EC0000068016007E03A201749096888621A48CB
:103ED0000188491C01801B4A12480178012000F02A
:103EE00033F804E0052088F80000FFF705FF02E042
:103EF000FFF702FFFFE7BDE8F18F0000E8040020B4
:103F0000E80B0020B4010020FC0B0020060C002070
:103F1000F0BDFFFF540400202400002030400008C2
:103F2000A8DDFFFF0D0C0020B80600200E0C0020BD
:103F3000E8050020040C0020080C0020CC420008FA
:103F4000F80B00200D3D000810B40123224C237013
:103F5000224B0400E4B243F834100400E4B203EB53
:103F6000C4035A6010BC704770B50024FFF740FAD4
:103F70004FF400711A48FEF732FB174D01202870EC
:103F800000263000C0B202281FDA14493000C0B247
:103F900051F83000002816D0012004003000C0B2D3
:103FA00051F83000401E3200D2B241F832003000E9
:103FB000C0B251F83000002805D13000C0B201EB8A
:103FC000C00040688047761CDBE72000C0B20028B4
:103FD00001D10020287070BD0C0C0020C00B002007
:103FE0000004004870B405004AF201064FF6FF7065
:103FF00001F0FF01002919D0002213001A00D2B2EB
:104000008A4213D21A00D2B2AA5C50400022140095
:104010002200D2B2082A07DAC20702D5400870404F
:1040200000E04008641CF3E75B1CE7E770BC7047E6
:1040300044440000000000000000000000000000F8
:104040000000000000000000000000000000000070
:104050000000000000000000000000000000000060
:104060000000000000000000000000000000000050
:104070000000000000000000000000000000000040
:1042D000000000009F3C00080000000001000000FA
:1042E000000000009F3C00080000000002000000E9
:1042F000000000009F3C0008000000000300FFFFDA
:104300007D00020553380008010000000400000091
:10431000000000009F3C00080000000005000000B5
:10432000000000009F3C0008000000000600FFFFA6
:10433000FFFF00059D370008010000000700000096
:10434000000000009F3C0008000000000800000082
:10435000000000009F3C0008000000000900000071
:10436000000000009F3C0008000000000A00000060
:10437000000000009F3C0008000000000B0000004F
:10438000000000009F3C0008000000000C0000003E
:10439000000000009F3C0008000000000D0000002D
:1043A000000000009F3C0008000000000E0000001C
:1043B000000000009F3C0008000000000F0000000B
:1043C000000000009F3C0008000000001000FFFFFC
:1043D0007B0001068135000801000000110000008B
:1043E000000000009F3C00080000000012000000D8
:1043F000000000009F3C00080000000013000000C7
:10440000000000009F3C00080000000014000000B5
:10441000000000009F3C00080000000015000000A4
:10442000000000009F3C0008000000001600000093
:10443000000000009F3C0008000000001700000082
:10444000000000009F3C0008000000001800000071
:10445000000000009F3C000800000000FEE7FEE7AF
:10446000FEE7FEE7FEE770477047704780B500F053
:1044700061F801BD80B52848FEF75AFA01BD80B544
:10448000264801680969C9070DD50168C968C907C7
:1044900009D57FF001010068016121498868002881
:1044A00001D08868804701BD10B51E4C2068C069E6
:1044B000800609D520680068800605D5202021687F
:1044C00008621948006880472068C06900061AD54C
:1044D00020680068000616D580202168086213480D
:1044E0000068804700280ED12068C0694006FBD5CF
:1044F0002068006830F08000216808600C4801687E
:1045000031F4005101602068C069000702D508201D
:104510002168086210BD0000C00A00209009002038
:10452000AC0B0020B8060020DC0B0020D00B0020D4
:10453000F80B002003490A680348006882180A60E3
:10454000704700BF000C0020E004002030B40025BC
:1045500012E050F8042BD30744BF4A44521E091FEF
:10456000042942F8045BFAD213468C0744BF158035
:104570009B1CC90748BF1D7050F8041B0029E8D1D7
:1045800030BC704710B5074979441831064C7C445B
:10459000163404E00A68081D114488470146A14208
:1045A000F8D110BD2C000000480000004EF68851E4
:1045B000CEF20001086840F470000860BFF34F8F2E
:1045C000BFF36F8F4FF00170E1EE100A70470000EB
:1045D0007DFFFFFF28070000E80400200000000026
:1045E000AFD4FFFFBE0200009C02000000000020CC
:1045F00000F00DF8002801D0FFF7C4FFAFF30080F2
:104600000020AFF30080FDF79DFD00F002F80120CF
:10461000704700F001B800000746384600F002F885
:10462000FBE7000080B5AFF30080024A11001820BC
:10463000ABBEFBE7260002000548014603B468460E
:1046400080F30988AFF30080FFF7B0FFFFF7D0FFDA
:10465000A5EDF5FE010002000400060008000A00B6
:104660000C0010002000400080000001455048313F
:10467000304C3130303120323230373031000000B0
:104680004550482D5472616E736D69747465720083
:104690005442312D32323031303334340000000096
:1046A00032303232303232342D303030303100005E
:1046B00000000000000000000102030406070809D2
:1046C0000148804701480047D146000839460008A4
:1046D0000248016851F470010160704788ED00E004
:1046E00056657220312E302E313000005645522052
:1046F000312E302E3130000046494E452D54454B69
:10470000010101030701000008040204080101017E
:104710000000000001020304FFF7FEBFFFF7FEBF29
:10472000FFF7FEBFFFF7FEBFFFF7FEBFFFF7FEBFBD
:10473000FFF7FEBFFFF7FEBFFFF7FEBFFFF7FEBFAD
:10474000FFF7FEBFFFF7FEBFFFF7FEBFFFF7FEBF9D
:10475000FFF7FEBFFFF7FEBFFFF7FEBFFFF7FEBF8D
:10476000FFF7FEBFFFF7FEBFFFF7FEBFFFF7FEBF7D
:10477000FFF7FEBFFFF7FEBFFFF7FEBFFFF7FEBF6D
:10478000FFF7FEBFFFF7FEBFFFF7FEBFFFF7FEBF5D
:10479000FFF7FEBFFFF7FEBFFFF7FEBFFFF7FEBF4D
:1047A000FFF7FEBFFFF7FEBFFFF7FEBFFFF7FEBF3D
:1047B000FFF7FEBFFFF7FEBFFFF7FEBFFFF7FEBF2D
:1047C000FFF7FEBFFFF7FEBFFFF7FEBFFFF7FEBF1D
:1047D000FFF7FEBFFFF7FEBFFFF7FEBFFFF7FEBF0D
:1047E000FFF7FEBFFFF7FEBFFFF7FEBFFFF7FEBFFD
:1047F000FFF7FEBFFFF7FEBFFFF7FEBFFFF7FEBFED
:10480000FFF7FEBFFFF7FEBFFFF7FEBFFFF7FEBFDC
:10481000FFF7FEBFFFF7FEBFFFF7FEBFFFF7FEBFCC
:10482000FFF7FEBFFFF7FEBFFFF7FEBFFFF7FEBFBC
:10483000FFF7FEBFFFF7FEBFFFF7FEBFFFF7FEBFAC
:10484000FFF7FEBFFFF7FEBFFFF7FEBFFFF7FEBF9C
:10485000FFF7FEBFFFF7FEBFFFF7FEBFFFF7FEBF8C
:10486000FFF7FEBFFFF7FEBFFFF7FEBFFFF7FEBF7C
:10487000FFF7FEBFFFF7FEBFFFF7FEBFFFF7FEBF6C
:10488000FFF7FEBFFFF7FEBFFFF7FEBFFFF7FEBF5C
:10489000FFF7FEBFFFF7FEBFFFF7FEBFFFF7FEBF4C
:1048A00070471007B806002048070020D8041007FA
:1048B000F808002044090020900412DC04100328AA
:1048C0000A00207404F003FF0A0C00200001F16AC2
:1048D00001166AB4126C04126E041270041272048F
:1048E000127404127604127804127A04127C0412F0
:1048F0007E04128004128204128404128604128838
:1049000004128A04128C04125604125804125A0417
:10491000125C04125E041260041262041264041237
:104920006604126804123404123604123804123A6F
:1049300004123C04123E04124004124204124404C5
:10494000124604124804124A04124C04124E041275
:104950005004125204125404128E04129004129243
:1049600004129404129604129804129A04129C04DD
:10497000129E0412A00412A20412A40412A604128D
:10498000A80412AA0412AC0412AE0412B00412B2AB
:10499000041003EC050020EE0412EA04FBFFF0050E
:1049A0009CF171011003F8460008FA0412FC04128D
:1049B000FE041003D4040020D60412D8041B700B8C
:1049C000B011041003D61D0008740852760C12783A
:1049D00008527A0C127C08527E0CF523DC1003502E
:1049E0004504480139121004210800020024F40093
:040000050800463970
:00000001FF
